:020000040800F2
:10000000901100200D610008DB010008DD010008EF
:10001000E1010008E5010008E90100080000000016
:10002000000000000000000000000000EF010008D8
:10003000ED01000800000000F1010008095000086F
:100040002761000827610008276100082761000870
:100050002761000827610008276100082761000860
:10006000C7160008E316000827610008276100088A
:100070002761000827610008276100082761000840
:100080002761000827610008276100082761000830
:10009000276100082761000827610008ED1D00089E
:1000A0002761000827610008276100082761000810
:1000B0002761000827610008276100082761000800
:1000C00027610008276100082761000827610008F0
:1000D000276100083F5600087D560008BB560008FF
:1000E000830D0008276100082761000827610008C8
:1000F00027610008276100082761000827610008C0
:1001000027610008276100082761000827610008AF
:10011000276100082761000827610008276100089F
:10012000276100082761000827610008276100088F
:10013000DFF80CD006F068FC004800479B5B000825
:100140009011002070B505460C4604EB430134F8CD
:1001500012600868801B086008682844086024F85A
:1001600012500868B0FBF3F080B270BD70B5054660
:100170000C4604EB430134F912600868801B0860E8
:1001800008682844086024F81250086890FBF3F0CF
:1001900000B270BD2DE9F04704460E4692469946DE
:1001A00006EB890556F82A10D5E90030591A60F196
:1001B0000000C5E90010D5E90020121940F1000047
:1001C000C5E9002046F82A404A460023D5E90071D7
:1001D000384606F0CEF8BDE8F087704700BFFEE76E
:1001E00000BFFEE700BFFEE700BFFEE770477047B5
:1001F0007047000070B504460D462146024805F0E0
:1002000048F9204670BD00000048004010B5044683
:1002100008239F4802789F492046FFF793FF9E4995
:1002200008809B480078401CC0B299490870082893
:1002300001DB0020087010BD10B59848007810B19F
:10024000012818D107E00621954804F044FF012059
:10025000924908700FE000BF9148006800F002006A
:1002600040B18F4804F04AFF0446FFF7CFFF00205B
:100270008A49087000BF00BF10BDF8B5012140F2E7
:10028000012003F067FB874C402700250126ADF8CD
:1002900000708DF802608DF803506946204603F027
:1002A0009DF800BF00207D4908707949087000BFA3
:1002B000FFF7C2FF764800780028F9D1F8BD00BFEB
:1002C00000BF00BF7448008841F63D514843800A92
:1002D000704775480078704708B50121402003F049
:1002E00039FB5C20ADF8000001208DF802004820A9
:1002F0008DF8030069466D4803F070F8012108206D
:1003000003F028FB4FF44070ADF8000001208DF899
:10031000020028208DF803006946654803F05EF866
:1003200008BD10B56348007810B96348007830B153
:1003300004215E4803F0E5F808B9012010BD022051
:10034000FCE75D48007840B270475A48007840B2F8
:10035000704710B5FFF791FFFFF7BEFF10BD10B556
:10036000FFF76AFF04F06AFE54490968401A40F634
:10037000B83188423ED304F061FE50490860FFF76F
:100380009EFF044642F6E060844203D200204649C4
:10039000086012E044F2A010844203D9642042496C
:1003A00008600AE0A4F53850E038642148434FF46F
:1003B0009651B0FBF1F03C49086022463A4801688A
:1003C0003FA006F05FFB384800680F280ED2FFF709
:1003D000A8FF01280AD042480078401CC0B240491A
:1003E0000870FA2805DBFA20087002E002203C4978
:1003F000087000BF2F480078A8B12D480830006869
:1004000000F4807050B904F019FE36490978401A9A
:10041000642815D300202749087011E004F00EFE6F
:10042000304908700CE022480830006800F4807001
:1004300030B101201F49087004F000FE29490870FE
:100440001D480078A8B11A480830006800F4007010
:1004500050B904F0F3FD24490978401AC82815D38F
:1004600000201549087011E004F0E8FD1E490870ED
:100470000CE00F480830006800F4007030B1012033
:100480000D49087004F0DAFD1749087010BD00002E
:10049000100000203C0100200E0000201100002070
:1004A0000024014000080140040000200018014021
:1004B000000C0140090000200B000020000000207B
:1004C0004261747465727920766F6C74616765201F
:1004D000256425252C2025646D760D0A000000007A
:1004E000080000200A0000200C00002000B589B0A0
:1004F0000121084603F03BFA0121042003F02AFA07
:100500000121084603F026FA0121634803F037F879
:100510000121624803F033F84FF40040ADF82000A9
:1005200018208DF8230003208DF8220008A95C48CC
:1005300002F054FFFF20ADF81800B320ADF814000E
:100540000020ADF81A00ADF8160005A94FF0804064
:1005500003F038FB7020ADF804000120ADF8060070
:10056000ADF80A000020ADF80C0001A94FF0804062
:1005700003F065FB0121880703F08CFE0821C80603
:1005800003F0ACFF0121880703F078FF0121880701
:1005900003F074FE09B000BD08B503208DF8020019
:1005A00018208DF803004FF40040ADF800006946B4
:1005B0003B4802F013FF08BD08B503208DF8020088
:1005C00010208DF80300C002ADF8000069463448E1
:1005D00002F004FF08BD10B5FFF7DEFF10BD10B537
:1005E000FFF7EAFF10BD2F49B1FBF0F14FF0804259
:1005F000118570474FF080429086704710B5FFF725
:10060000EEFF29494869FFF7EEFFFFF7E4FF4FF4DB
:10061000FA7000F035F8FFF7E2FF4FF4487000F091
:100620002FF821494869FFF7DEFFFFF7D4FF4FF4A9
:10063000FA7000F025F8FFF7D2FF10BD70B506463E
:100640000C4615461948046004F0F8FC1849086087
:10065000FFF7C5FF2846FFF7CDFF3046FFF7C3FF82
:10066000FFF7B9FF70BD10B504F0E8FC1049096848
:10067000401A0E490968884201D9FFF7B0FF10BD42
:1006800010B5044603E04FF47A7004F0A0FD201E7C
:10069000A4F10104F7D110BD0002300000031800DE
:1006A00000080140A24A04001C00002014000020A1
:1006B0001800002008B50121082003F04BF942F290
:1006C0002000ADF8000001208DF8020048208DF8D0
:1006D00003006946134802F081FE08BD002011495D
:1006E0000831096801F0200111B920F0010001E092
:1006F00040F001000B490831096801F4005111B9BB
:1007000020F0020001E040F00200704700B5FFF762
:10071000E5FF00F00300032801D0012000BD002008
:10072000FCE70000000C0140F8B507460C461546F2
:100730001E46ADF800408DF802608DF80350694602
:10074000384602F04BFEF8BD00B587B0002004909B
:10075000059006900090019002900390B320ADF8B0
:1007600014000020ADF81000ADF81600ADF812002E
:10077000964803F053F904A9944803F023FA602043
:10078000ADF800000220ADF808000120ADF802002D
:100790000020ADF80400ADF8060069468B4803F070
:1007A00090FA0821894803F0A2FE0121874803F04E
:1007B00065FD0323102280218548FFF7B5FF012244
:1007C0008021834802F0BBFE0323002204218048DD
:1007D000FFF7AAFF0323002202217D48FFF7A4FFB1
:1007E0000323002210217A48FFF79EFF03230022F3
:1007F00010217848FFF798FF002077490870774963
:1008000008707749086077490860774908700120C7
:1008100007B000BD10B5FFF797FF1421734805F02E
:10082000F2FD4FF0FF307149086110BD6C4800685F
:10083000704770B56848007870B101281CD0022854
:1008400009D104F0FBFB67490968401A142802D952
:100850000020614908708FE06348007800EB800059
:10086000634901EB40004488E1B2624804F033FC84
:100870000120594908707FE000BF5E48006800F021
:100880000200002877D05B4804F038FC0446534847
:10089000007808BB20B25449097801EB8101544A21
:1008A00002EB41018880002C0CDB40F6B83084421A
:1008B00008DA01204C49097801EB810102EB410182
:1008C000087230E000204849097801EB8101484A6C
:1008D00002EB4101087226E0434A127802EB8202E1
:1008E000434B33F81200404A127802EB820203EBCA
:1008F0004202B2F90420111B64290EDD384A126845
:100900008243374B1A600AB2374B1B7803EB8303E1
:10091000374D05EB4303DA8004E0314A12680243A5
:100920002F4B1A6000BF30480078401CC0B22E49DF
:10093000087004281BD3002008702848007838B9B4
:10094000112022493831088001202449087005E02F
:1009500000201E49383108802049087002201E49B5
:10096000087004F06BFB1F49086003E003E00020FF
:100970001949087000BF00BF00BF70BD10B5FFF778
:1009800058FFFFF753FF0446FF2018490861002075
:1009900016E000F10802012303FA02F202EA040160
:1009A00069B100EB8002124B03EB4202127A32B9BA
:1009B0000E4A13690122824093430C4A1361401C82
:1009C0000328E6D910BD0948704700000004004024
:1009D00000100140000801406C0000206D00002064
:1009E00068000020700000206400002050010020FA
:1009F0003C00002000280140F8B507460C4615468B
:100A00001E46ADF800408DF802608DF8035069462F
:100A1000384602F0E3FCF8BD10B50323042291022E
:100A20002F48FFF7E9FF032314224FF400712D48EC
:100A3000FFF7E2FF4FF400702A4908611C212A48A1
:100A400005F0E1FC5A20284988810120C881084628
:100A500026A10A6802604A684260097A0172002091
:100A600009E000BF244951F820201F49103101EB53
:100A700080010A60401C0328F3DBFF201F49087037
:100A800010BD4FF40071174A51611C49087070473E
:100A900010B5032314224FF400711248FFF7ACFF86
:100AA0004FF400700F490861FF201449087010BD11
:100AB00012480078FF2801D0012070470020FCE791
:100AC0000E480078704710B50323042291020448B1
:100AD000FFF792FF024808300068C0F3003010BDF5
:100AE000000801400010014064010020726566208A
:100AF0006261736500000000E8F7FF1F74000020CA
:100B000030B5022928D00C2902D0502936D111E065
:100B1000C34C036904EB03131B7843F00103C04D7E
:100B2000046905EB041423702C46036904EB0313DA
:100B30005A6023E0BA4C036904EB03131B7843F0BB
:100B40000203B74D046905EB041423702C460369B6
:100B500004EB03139A6011E0B14C036904EB031337
:100B60001B7843F00403AE4D046905EB04142370B5
:100B70002C46036904EB0313DA6000BF00BF30BDED
:100B80001FB50121084602F0E5FE0121202002F0F8
:100B9000E1FE03208DF80E004FF4E040ADF80C00AC
:100BA00048208DF80F0003A99E4802F017FC0E2183
:100BB000032002F029FD0D21032002F025FD0C2168
:100BC000032002F021FD00208DF8080010208DF890
:100BD000090001208DF80A008003019001A802F0AD
:100BE0003FF84FF40050019001A802F039F84FF49B
:100BF0008050019001A802F033F828208DF8000001
:100C000001208DF8010003208DF8020001208DF8ED
:100C10000300684601F05BFC3021814805F0F3FBDE
:100C200000240EE004EB84007F4901EB80000461A6
:100C300004EB84017C4A02EB81007C4900F00DF951
:100C4000641C032CEED3012004B010BD1CB50020A1
:100C50008DF8040010208DF8050000208DF80600A6
:100C60004FF480400090684601F0FAFF4FF40050C6
:100C70000090684601F0F4FF4FF480500090684601
:100C800001F0EEFF1CBD70B50B4600BF00BFEFF3D7
:100C90001084214672B600BF0A4600212AE00125D1
:100CA0008D40ECB25E4D05EB00152D78254005B367
:100CB0005B4D05EB00152D1D55F821509D4218D2B6
:100CC000574D05EB00152D1D55F821505D1B584E55
:100CD000B5420ED3524D05EB00152D78A543504E6D
:100CE00006EB001635704E4D05EB00152D1D45F831
:100CF0002130491C0329D2D300BF00BF82F31088E2
:100D000000BF00BF70BD70B5002507E005EB850191
:100D1000454A02EB810000F054F96D1C032DF5D318
:100D200004F08FF90446002504E021462846FFF729
:100D3000AAFF6D1C032DF8D370BD0146384800EBA7
:100D40000110007870470246032A08D2032906D210
:100D5000334800EB0210001D50F8210070470020BE
:100D6000FCE770B504460D460DB9012200E00022F3
:100D7000114604EB84022C4B03EB820000F087F851
:100D800070BD10B54FF4804001F0D0FF58B14FF462
:100D9000804001F0DCFF23480830006800F4804107
:100DA0000020FFF7DEFF4FF4005001F0BFFF58B105
:100DB0004FF4005001F0CBFF1A480830006800F4EF
:100DC00000510120FFF7CDFF4FF4805001F0AEFF3E
:100DD00058B14FF4805001F0BAFF12480830006853
:100DE00000F480510220FFF7BCFF10BD10B5FFF7E3
:100DF000C7FE10BD10B5FFF786FF10BD00B500207F
:100E0000FFF79BFFC0B200BD00B50120FFF795FFC3
:100E1000C0B200BD00B50220FFF78FFFC0B200BD19
:100E2000BC0100200014014080010020010B0008DB
:100E3000A0F703002DE9F04104460E461746E56889
:100E40001DB13A4631462046A847BDE8F081002151
:100E50000170417041608160704700B502460B46E9
:100E60001046FFF7F4FFD36000BD0346881A98428E
:100E700004D88818984201D3012070470020FCE76D
:100E8000012902D1002242604270017070472DE9B1
:100E9000F04104460F4604F0D4F80546A6682078D1
:100EA00030B101280AD002281AD0032879D14EE0A7
:100EB0001FB101212046FFF7E3FF7EE05FB9A81BC9
:100EC000C82242F2C421FFF7D0FF20B10221204600
:100ED000FFF7D6FF71E000212046FFF7D1FF6CE05D
:100EE0007FB3607858B9A81BC82241F2F811FFF708
:100EF000BCFF30B303212046FFF7C2FF5DE0A81B13
:100F0000C8224FF40C71FFF7B0FF38B160684000A1
:100F1000606003212046FFF7B3FF4EE0A81BC82204
:100F200040F27261FFF7A1FF58B160684000606055
:100F3000606840F00100606003212046FFF7A0FFD9
:100F40003BE0FFE700212046FFF79AFF35E04FBB6B
:100F5000A81BC8224FF40C71FFF787FF98B1617886
:100F6000481C6070072909DB2A4620466168FFF7A4
:100F700061FF00212046FFF783FF03E002212046A6
:100F8000FFF77EFF19E0A81BC82242F2C421FFF739
:100F90006CFF38B10020607002212046FFF770FF1F
:100FA0000BE005E0FFE700212046FFF769FF04E0C2
:100FB00000212046FFF764FF00BF00BFA560BDE829
:100FC000F0817047F8B507460C4615461E46ADF849
:100FD00000408DF802608DF803506946384602F0F3
:100FE000FDF9F8BD002844D04FF48051C64A116085
:100FF00000BF00BF00BF00BF00BF00BF00BF00BFF9
:1010000000BF00BF00BF00BF00BF00BF00BF00BFE8
:1010100000BF00BF00BF00BF00BF00BF00BF00BFD8
:1010200000BF00BF00BF00BF00BF00BF00BF00BFC8
:1010300000BF00BF00BF00BF00BF00BF00BF00BFB8
:1010400000BF00BF00BF00BF00BF00BF00BF00BFA8
:101050004FF48051AC4A121D116000BF00BF00BFA9
:1010600000BF00BF00BF00BF00BF00BF00BF00BF88
:1010700044E04FF48051A44A116000BF00BF00BF9C
:1010800000BF00BF00BF00BF00BF00BF00BF00BF68
:1010900000BF4FF480519C4A121D116000BF00BF79
:1010A00000BF00BF00BF00BF00BF00BF00BF00BF48
:1010B00000BF00BF00BF00BF00BF00BF00BF00BF38
:1010C00000BF00BF00BF00BF00BF00BF00BF00BF28
:1010D00000BF00BF00BF00BF00BF00BF00BF00BF18
:1010E00000BF00BF00BF00BF00BF00BF00BF00BF08
:1010F00000BF00BF00BF00BF00BF00BF704770B59A
:101100000546072407E00121A14001EA0500FFF799
:1011100069FF601E44B2002CF5DA70BD10B51420D2
:1011200004F055F810BD2DE9F04104460D46164671
:101130000027002C01DBFF2C01DDBDE8F081002D34
:1011400001DBFF2D00DDF8E7002E01DBFF2E00DDC7
:10115000F3E76E480068A04202D06C4804600127A3
:101160006B480068A84202D06948056001276948B9
:101170000068B04202D06748066001275FB1644949
:101180000878FFF7BCFF61490878FFF7B8FF6149AD
:101190000878FFF7B4FF00BFCFE710B50323102294
:1011A000110259481038FFF70DFF4FF4805056498F
:1011B000091D0860642004F00AF84FF0FF3055491B
:1011C00008605349086051490860002211461046E2
:1011D000FFF7A9FFFFF7A2FF10BD10B503231022F0
:1011E000110249481038FFF7EDFE4FF48050464990
:1011F000091D0860002211461046FFF794FFFFF713
:101200008DFF002043490860414908603F4908605C
:1012100010BD6CE0002006460546044608E0204666
:10122000641C00221146FFF77EFF0A2000F060F8E0
:10123000FF2CF4D108E029466D1C00221046FFF770
:1012400072FF0A2000F054F8FF2DF4D108E0324676
:10125000761C00210846FFF766FF0A2000F048F8D8
:10126000FF2EF4D1002006460546044609E0294633
:101270006D1C2046641C0022FFF755FF0A2000F079
:1012800037F8FF2CF3D1002006460546044609E056
:101290003246761C2046641C0021FFF744FF0A20DA
:1012A00000F026F8FF2CF3D1002006460546044640
:1012B00009E03246761C29466D1C0020FFF733FFFB
:1012C0000A2000F015F8FF2DF3D100200646054650
:1012D00004460AE03246761C29466D1C2046641CF2
:1012E000FFF721FF0A2000F003F8FF2CF2D191E76D
:1012F00010B5044603E04FF47A7003F068FF201E37
:10130000A4F10104F7D110BD100C014078000020B9
:101310007C00002080000020F8B507460C461546EA
:101320001E46ADF800408DF802608DF80350694606
:10133000384602F053F8F8BD10B54FF40050FB49A1
:101340000860032310220146F8481038FFF7E4FF35
:10135000142003F03CFF4020F5490860802008601D
:1013600010BD70B505460C46281E01DB014600E0A5
:1013700041420D46EF484078A04201D0FFF7DCFF24
:101380000CB1032C01D1002504E042F2107085421B
:1013900000DD054642F21070401BE749088034B179
:1013A000012C0CD0022C11D0032C16D100E014E03B
:1013B0008020DF49091F0860402008600DE04020C0
:1013C000DB4908608020091F086006E08020D849BA
:1013D00008604020091F086000BF00BF5DB1D5480C
:1013E0004078A04207D0032318224FF40051CF4881
:1013F0001038FFF791FFCF494C7070BD10B54FF416
:101400008040CA490860032310220146C7481038AB
:10141000FFF782FF142003F0DAFE4FF40070C44996
:1014200008601020086010BD70B505460C46281EE7
:1014300001DB014600E041420D46BE480078A04273
:1014400001D0FFF7DBFF0CB1032C01D1002504E034
:1014500042F21070854200DD054642F21070401BDA
:10146000B549091D088034B1012C0DD0022C12D0D1
:10147000032C18D100E016E04FF40070AC49091FAE
:101480000860102008600EE01020A94908604001A3
:10149000091F086007E04FF40070A549086010209C
:1014A000091F086000BF00BF5DB1A2480078A042DC
:1014B00007D0032318224FF480419C481038FFF7CF
:1014C0002BFF9C490C7070BD70B506460C46154646
:1014D00026B929462046FFF7A7FF03E02946204604
:1014E000FFF73FFF70BD00B589B00121C80202F0CF
:1014F00031FA0121084602F02DFA0121402002F0C4
:1015000029FA01218D4802F03AF80121202002F049
:1015100021FA4FF43470ADF8200010208DF823002C
:1015200003208DF8220008A98148143801F056FFE5
:101530004FF480407D4908604010086010208DF80D
:10154000230003208DF822004003ADF8200008A9F5
:101550007648103801F042FF4FF40070744908607B
:1015600010200860402008608020086042F20F7060
:10157000ADF818000020ADF81400ADF81A00ADF871
:10158000160005A96C483C3802F01CFB7020ADF831
:1015900004000120ADF8060042F21070ADF80A0018
:1015A0000220ADF80C0001A963483C3802F021FC90
:1015B000082161483C3802F0B0FF01A95E483C3880
:1015C00002F0CCFB08215C483C3802F09DFF012171
:1015D00059483C3802F05EFE012157483C3802F081
:1015E0004DFF012154483C3802F048FE00210846D6
:1015F000FFF71AFF00210846FFF7B3FE504800210D
:10160000016041604F48016041604F4801604160A6
:1016100009B000BD1FB50121084602F09BF9012168
:10162000202002F097F903208DF802000C20ADF87D
:10163000000048208DF8030069463D48143801F049
:10164000CDFE0221032001F0DFFF0321084601F057
:10165000DBFF0420029000208DF80C0010208DF894
:101660000D0001208DF80E0002A801F0F9FA082003
:10167000029000208DF80C0010208DF80D00012044
:101680008DF80E0002A801F0EBFA08208DF8040096
:1016900002208DF8050000208DF8060001208DF84D
:1016A000070001A800F013FF09208DF804000220B4
:1016B0008DF8050001208DF806008DF8070001A8BF
:1016C00000F005FF1FBD10B5042001F02FFB38B15D
:1016D000042001F03CFB1D484068401C1B49486049
:1016E00010BD10B5082001F021FB38B1082001F031
:1016F0002EFB16480068401C1449086010BD10B548
:1017000013480021016041601248016041601248A5
:10171000016041600D480160416010480160416016
:101720000F4801604160FFF775FF10BD10180140C0
:1017300014140140B40000203C2C0140C0001600ED
:10174000B8000020C0000020C80000209C0000203D
:10175000840000208C00002094000020A4000020C1
:10176000AC0000202DE9FF5F824600BF00BFEFF311
:101770001081084672B600BF814600240BE0E9489C
:1017800050F82400E84941F824000020E54941F8D8
:101790002400601CC4B2022CF1DB00BF00BF89F33F
:1017A000108800BF00BFBAF1000F01D14FF0010A4D
:1017B000002454E0DC4951F8240004F0BFFF0390FA
:1017C00005F014F80746D94AD94B04F0CDFE05467A
:1017D00005F01FF88346504604F0B5FF07468846DB
:1017E000584605F003F805460022D24B04F0BCFE33
:1017F0003A464346CDE9000104F028FFCDE9020155
:1018000005F007F8CC4941F82400CC4850F82410E2
:10181000584604F01FFE8346584604F0BAFFC849F4
:1018200051F824100844C64941F82400584604F0F1
:10183000B0FF064604F082FF0546594604F05FFEFD
:10184000BE4941F82400BF4850F82400B64951F879
:1018500024100844BB4941F82400601CC4B2022C87
:10186000A8DBBDE8FF9FB64800687047B4484068F1
:10187000704770B5B34804680020B249086020463C
:1018800004F05CFF0546B04904F03CFE70BD70B545
:10189000AC4844680020AB494860204604F04EFF45
:1018A0000546A94904F02EFE70BD2DE9F041A2497C
:1018B000086804F09BFF06460022A44B04F054FE87
:1018C000044604F07AFFBDE8F0812DE9F0419A4921
:1018D000486804F08BFF064600229C4B04F044FE4F
:1018E000044604F06AFFBDE8F0812DE9FE4F04468E
:1018F000DFF85C92974850F8240028B903220021B1
:101900002046FFF7E1FD78E0924850F824000028D7
:1019100001DD012000E0022006468F48005DB04254
:1019200015D0854951F824004FF07E5104F098FFFE
:1019300006D2032200212046FFF7C6FDBDE8FE8F38
:101940000020864941F82400854941F82400814956
:1019500051F82400002801DB014600E0414288469E
:10196000404604F0E2FE8346734850F8241058467F
:1019700004F0C2FD0546794850F82410284604F0CA
:10198000BBFD8246764951F82400294604F062FDE9
:10199000734941F82400714840F824505146002012
:1019A00004F0B0FD02906E4850F824106D4804F029
:1019B000A9FD294601906C4804F0A4FD009001990E
:1019C00004F048FD8346029904F044FD074660494F
:1019D000384604F045FF00D25D4F0021384604F040
:1019E00035FF00D20027384604F0BAFE834632465F
:1019F00059462046FFF768FD00BF00BF9EE710B5BF
:101A0000002403E02046FFF770FF641C022CF9D38A
:101A100010BD504A1060516070474E4800687047D2
:101A20004C484068704710B503210020FFF7FCFCCC
:101A300003210020FFF795FC10BD10B5FFF7F3FF61
:101A400003F0FCFA044607E003F0F8FA001B47F243
:101A50003051884200D910BDFFF727FF0028F3D18D
:101A6000FFF733FF0028EFD100BFF4E708B50121ED
:101A7000202001F06FFF40F20240ADF8000001208D
:101A80008DF8020048208DF803006946374801F0C0
:101A9000A5FC08BD10B50221344801F032FD28B183
:101AA0004FF48061314801F02CFD08B9002010BDD1
:101AB0000120FCE710B54FF480702D4948610120EA
:101AC0002C4908600323102201022948FFF724FC57
:101AD00003231022012127481438FFF71DFC10BDF5
:101AE00070B503F0ABFA044623480068251A102DA0
:101AF00006D3214804602846FFF734FEFFF77FFF36
:101B00001E480068201AB0F57A7F0AD31B4804608B
:101B1000FFF7C0FF28B9022250214FF47A60FEF788
:101B20008DFD70BD9C000020A40000208F647B34DC
:101B30000308C43F00408F40AC0000209400002008
:101B40008C000020840000201A40203E0000F0405D
:101B500000401C46B8000020B4000020C000002057
:101B6000C80000200000C0400000C841001401402F
:101B700000100140140C0140D0000020D4000020CF
:101B800038B505460C462B48006840B1E0B20090DD
:101B9000012269462848274B1B68984700BF38BD7B
:101BA000244A116070472DE9F04107460C4615465E
:101BB0001E46214933462A464868214603F0FBFB6E
:101BC000BDE8F08170B505460C461B4948682146C2
:101BD00003F021FC70BD70B504460D462946204631
:101BE00003F064FB08B9002070BD002011490860B3
:101BF000124811490860084644601148886011483D
:101C0000C860114808614FF400708882C8820F498B
:101C1000204603F0EFFC0120E6E710B50446002162
:101C2000204603F0E7FC204603F026FB10BD0248E7
:101C300070470000D8000020EC0100200C020020BA
:101C4000A11B0008A71B0008C51B0008811B00087A
:101C5000F8B507460C4615461E46ADF800408DF80F
:101C600002608DF803506946384601F0B7FBF8BDB5
:101C700070B504460D46012D0CD104EB8402FE4BD9
:101C800003EB8202918804EB840253F8220001F0F6
:101C900052FC0BE004EB8402F74B03EB82029188C9
:101CA00004EB840253F8220001F047FC70BD1CB520
:101CB0000446042C00DB1CBD01212046FFF7D8FFA1
:101CC000142003F084FA00212046FFF7D1FF04EB33
:101CD0008400E94A02EB8000017C042001F094FCBE
:101CE00000208DF8040010208DF8050001208DF8EB
:101CF000060004EB8400E04901EB8000017C012038
:101D000088400090684600F0ABFF00BFD3E71CB5E9
:101D10000446042C00DB1CBD00212046FFF7A8FF71
:101D200000208DF8040010208DF8050000208DF8AB
:101D3000060004EB8400D04901EB8000017C012007
:101D400088400090684600F08BFF00BFE3E72DE974
:101D5000FF5F8246BAF1040F01DBBDE8FF9F4FF041
:101D6000000900240CE0C548007800EB8000C4495D
:101D700001EB8000001D30F814008144601CC4B2E7
:101D80000AEB8A00BE4901EB80008078A042EADCC1
:101D9000002C02DDB9FBF4F901E04FF00009DFF897
:101DA000E4B24FEA590004F0CEFC07460022B64BDD
:101DB00004F04CFCCDE90201584604F017FDCDE9D2
:101DC0000001DDE9022304F0CFFB054604F021FD0C
:101DD0008346584604F0DDFCA849097801EB8101EF
:101DE000A74A02EB8101086100BFB6E7FEB5A34830
:101DF000007800EB8000A04901EB8000017C01200D
:101E000000FA01F7384600F091FF002831D038463B
:101E100000F09DFF9948067806EB8602964B03EB8F
:101E20008202918906EB860203EB8202906801F040
:101E300068FB054600BF012D1CD10121102001F0D7
:101E400096FD4EF66020ADF804004720ADF8000086
:101E50000020ADF80600ADF8020069468B4801F09D
:101E6000B1FE0021894802F09DFC0121874802F063
:101E700005FA4DE00021854802F000FA7F4800781D
:101E800000EB80007E4901EB80004478042C00DBED
:101E900000247E4802F0A9FC7849097801EB810111
:101EA000774A02EB8101091D2246631CDCB221F84E
:101EB00012007248007800EB8000714911F8200090
:101EC000401C6E49097801EB81016D4A02F821003E
:101ED0006A48007800EB8000114601EB80004470F6
:101EE0006648007800EB800001EB800080780428D1
:101EF0000EDA6248007800EB800001EB8000807809
:101F0000401C5E49097801EB810102EB8101887078
:101F1000FEBD70B559480078042809DB00205749F8
:101F200008700120097801EB8101554A02F821006F
:101F30005248007800EB8000514911F82000012838
:101F400006D0022822D0032861D004287ED1D5E013
:101F50004A480078FFF7ABFE4848007800EB800065
:101F6000474911F82000401C4449097801EB8101E0
:101F7000434A02F8210003F061F84049097801EB77
:101F800081013F4A02EB8101C860E1E003F056F8AD
:101F90003A49097801EB8101394A02EB8101C968AC
:101FA000401A322832D90021384802F067F9334804
:101FB0000078FFF7ACFE03F041F83049097801EBF7
:101FC00081012F4A02EB8101C86000202B4909786A
:101FD00001EB810102F821002848007800EB800025
:101FE000114601EB800000214160816023480078A8
:101FF000401C2249087008460078042801DB0020B4
:102000000870002211461046FFF78DF8A0E01B482B
:10201000007800EB80001A4901EB8000807800B95D
:1020200096E01648007800EB8000154901EB80002F
:102030008078042808DB04201049097801EB81012D
:102040000F4A02EB810188700C4800E077E00078CD
:10205000FFF77DFE0948007800EB8000084911F881
:102060002000401C0549097801EB8101044A02F86F
:102070002100024800780BE0186C0008DC0000200A
:102080000C04002085CBAB4300408F400010004083
:10209000032190FBF1F201FB1200022801D1102074
:1020A00000E00020044652480078032190FBF1F242
:1020B00001FB1200012801D1102000E0002005469C
:1020C0004B480078032190FBF1F201FB120008B9A4
:1020D000102000E00020064622462946FFF723F89C
:1020E0004348007800EB8000424901EB8000026920
:1020F0003F48017840A004F0C5FC29E03C48007846
:10210000FFF705FE02F09AFF3949097801EB8101DA
:10211000384A02EB8101C86000203549097801EB9B
:10212000810102F8210032480078401C30490870D3
:1021300008460078042801DB0020087008E0012030
:102140002B49097801EB81012A4A02F8210000BFDE
:1021500000BF70BD10B50446042C01DB002010BD8B
:102160002046FFF7F4FD04EB8400224901EB8000D8
:102170000069F4E710B5002422E004EB8402264B4A
:1021800003EB8202918904EB840203EB82020123B8
:1021900090682822FFF75CFD04EB84021E4B03EBE2
:1021A0008202918804EB840253F822000323102258
:1021B000FFF74EFD00212046FFF75AFD601CC4B218
:1021C000042CDADB50210B4804F01DF910BD10B5CA
:1021D000002405E000212046FFF74AFD601CC4B240
:1021E000042CF7DB5021034804F00DF910BD00006A
:1021F000DC0000200C0400205B736F6E61725D3A9E
:102200002063682025642C2064697374616E6365A3
:102210002025640D0A000000186C000810B501F0BC
:10222000D7FB0121C80201F0A2FB4FF4C07002F0FD
:1022300012FD7F2002F018FD7F2002F030FD10BD5E
:1022400010B57F2002F025FD10BD10B5FFF7F8FF97
:1022500000214FF4006001F08AFB10BD10B50A2187
:10226000944804F0D0F84FF4C871934804F0CBF8C8
:1022700092480021018010BD10B50A218D4804F05C
:10228000C2F84FF4C8718C4804F0BDF88B480021A7
:10229000018010BD2DE9F04105460F46164625F098
:1022A000706515B90020BDE8F08106B10FB90020B6
:1022B000F9E7002429E004EB84007F4951F830005D
:1022C00020F0706000B11EE004EB84007A4941F810
:1022D000305004EB840001EBC000466204EB840143
:1022E000754A02EBC101081D202104F08CF804EBB3
:1022F0008401714A02EBC101081D2022394604F015
:102300008DF80120CFE7601CC4B20A2CD3DB00207B
:10231000C9E770B5054625F070650DB9002070BDA0
:1023200000241FE004EB8400634951F8300020F0E2
:102330007060A84214D1002004EB84015E4A42F888
:10234000310004EB840102EBC101486204EB84011B
:1023500002EBC101081D202104F055F80120DEE741
:10236000601CC4B20A2CDDDB0020D8E770B502F097
:1023700065FE53490968401A642800D270BD0020E8
:102380004E4948700870002440E004EB84004A493C
:1023900051F8300020F0706000B935E004EB8400A3
:1023A000454901EBC000406A00B92DE004EB84010F
:1023B000414A02EBC101486A804705463DB13F48AA
:1023C00041784078401C3D4A50703A48445404EBF0
:1023D0008400394951F8300020F0706004EB84012A
:1023E000354A42F8310004EB8400114651F83000C0
:1023F00040EA056004EB840142F831002F48007880
:1024000028432E49087000BF601CC4B20A2CBCDBF4
:1024100000BFB3E7024612B128480078107011B12E
:1024200026484078087001207047014623484078CC
:10243000884201DC002070471E48425C0A2A01DB0A
:102440000020F8E702EB82001B4B53F83000F2E764
:1024500001461A484078884201DC00207047154840
:10246000425C0A2A01DB0020F8E702EB8200124BF3
:1024700003EBC000001DF1E7014621F0706109B9CE
:1024800000207047002210E002EB82000A4B53F854
:10249000300020F07060884205D102EB820043F8E2
:1024A00030100120EDE7501CC2B20A2AECDB0020FC
:1024B000E7E70000EC0500205C040020E0000020BD
:1024C000E400002031490143314A1160704770B582
:1024D000002100230F22C47804B32D4C246804F497
:1024E000E064C4F5E064210AC1F10403CA40447801
:1024F00004FA03F18478144021430901254C06783D
:10250000A155047804F01F050124AC4005786D1135
:10251000AD0005F1E025C5F8004109E0047804F0BC
:102520001F050124AC401C4D0678761145F8264065
:1025300070BD1A4A0A400243154B1B1F1A607047B0
:1025400039B1134A121D12680243114B1B1D1A6048
:1025500006E00F4A121D126882430D4B1B1D1A60C4
:102560007047042808D14FF0E021096941F00401C7
:102570004FF0E022116107E04FF0E021096921F0FE
:1025800004014FF0E0221161704700000000FA05DD
:102590000CED00E000E400E080E100E080FFFF1FC0
:1025A00010B50446FA48844208D10121401501F0D3
:1025B000EBF90021601501F0E7F917E0F5488442D6
:1025C00008D10121001501F0DFF90021201501F0EB
:1025D000DBF90BE0F048844208D10121C80301F087
:1025E000D3F900214FF4004001F0CEF910BD30B511
:1025F0000246002000235068E84C20400D790C680A
:1026000044EA0524204350609068E54C2040D1E91D
:1026100002542C434D7944EA450420439060D06A2B
:1026200020F470000C7C641EE4B2234340EA0350A3
:10263000D06230BD00210160017141718160C160D3
:1026400001210174704721B1826842F00102826069
:1026500003E0826822F001028260704721B1826843
:1026600042F48072826003E0826822F480728260A9
:10267000704710B50023CBB21AB144681C434460C4
:1026800002E044689C43446010BD816841F0080149
:1026900081607047014600208A6802F008020AB192
:1026A000012000E000207047816841F00401816052
:1026B0007047014600208A6802F004020AB1012036
:1026C00000E00020704721B1826842F4A0028260DD
:1026D00003E0826822F4A002826070470146002075
:1026E0008A6802F480020AB1012000E000207047ED
:1026F00010B50A4600210023416821F46041531EB1
:1027000041EA4331416010BD21B1426842F40062A8
:10271000426003E0426822F4006242607047F0B514
:1027200004460D4600200021092D11DDE068A5F1C9
:102730000A0606EB4607072606FA07F18843A5F1C5
:102740000A0606EB460603FA06F10843E0600CE0D1
:10275000206905EB4507072606FA07F1884305EBD4
:10276000450603FA06F108432061072A0FDA606B79
:10277000561E06EB86071F2606FA07F18843561EEB
:1027800006EB860605FA06F10843606322E00D2A8F
:102790000FDA206BD61F06EB86071F2606FA07F115
:1027A0008843D61F06EB860605FA06F10843206328
:1027B00010E0E06AA2F10D0606EB86071F2606FA76
:1027C00007F18843A2F10D0606EB860605FA06F12D
:1027D0000843E062F0BD21B1826842F48012826059
:1027E00003E0826822F48012826070470146C86C60
:1027F00080B2704766484C300068704721B142682B
:1028000042F48062426003E0426822F480624260E7
:10281000704721B1426842F48052426003E042684E
:1028200022F48052426070470A460021816821F4F8
:10283000E04111438160704721B1826842F4004257
:10284000826003E0826822F400428260704721B116
:10285000826842F40212826003E0826822F402126B
:1028600082607047014600208A6802F400120AB1B3
:10287000012000E000207047F0B504461546002016
:1028800000220026092911DDE068A1F10A0707EB03
:10289000470C072707FA0CF29043A1F10A0707EB50
:1028A000470703FA07F21043E0600CE0206901EBF0
:1028B000410C072707FA0CF2904301EB410703FA9A
:1028C00007F210432061A06BC0F30156EF1C06F124
:1028D000010CA7EB0C0707EB870C1F2707FA0CF27C
:1028E0009043EF1C06F1010CA7EB0C0707EB8707E1
:1028F00001FA07F21043A063F0BD10B50A460021AB
:102900000023816B21F44011531E41EA035181637E
:1029100010BD08B5002300930090009B0B4400936A
:10292000009B1A6008BD08B5024600200090009286
:1029300001F12800009B184400900098006880B2C4
:1029400008BD0A4600214168164B194011434160F9
:1029500070474162826270470A460021416821F057
:102960001F0111434160704740B1094908310968AE
:1029700041F40001064A0832116007E004490831B9
:10298000096821F40001024A083211607047000012
:102990000024014000280140003C0140FFFEF0FF00
:1029A000FDF7F1FFFFFD3FFF0246002013680B40DB
:1029B0000BB1012000E000207047CA43026070475D
:1029C00070B502460020002300240B125568CEB2D9
:1029D00005EA060415681D4015B10CB1012000E0A0
:1029E000002070BD00220A12D3430360704700002C
:1029F00001684FF6FE7211400160002101604160E4
:102A00008160C1608D49884208D18C490839496884
:102A100041F00F01894A083A51608AE08749143130
:102A2000884208D185490839496841F0F001834A54
:102A3000083A51607DE081492831884208D17F49B8
:102A40000839496841F470617C4A083A516070E085
:102A50007A493C31884208D178490839496841F4BB
:102A60007041764A083A516063E0744950318842B7
:102A700008D172490839496841F470216F4A083A0F
:102A8000516056E06D496431884208D16B4908397C
:102A9000496841F47001694A083A516049E0674960
:102AA0007831884208D165490839496841F0706138
:102AB000624A083A51603CE06149884206D1011FF0
:102AC000096841F00F01021F116032E05C491431C6
:102AD000884208D15A49091F096841F0F001584A53
:102AE000121F116025E056492831884208D1544907
:102AF000091F096841F47061514A121F116018E002
:102B00004F493C31884208D14D49091F096841F4B9
:102B100070414B4A121F11600BE049495031884205
:102B200007D14749091F096841F47021444A121F1F
:102B30001160704710B50022026847F6F0739A439F
:102B40000C6A8B6823430C6923434C6923438C69CB
:102B50002343CC6923434C6A23438C6A23431A439F
:102B60000260CB6843600B6883604B68C36010BD34
:102B70000021016041608160C1600161416181614A
:102B8000C161016241628162704721B1026842F015
:102B90000102026004E002684FF6FE731A40026010
:102BA00070471AB103680B43036002E003688B436C
:102BB00003607047416070470146486880B27047C3
:102BC00001460020002201F080531BB11C4B083B42
:102BD0001A6802E0194B083B1A6802EA01030BB1BC
:102BE000012000E00020704700F0805119B1144925
:102BF000091F086002E01149083948607047014622
:102C00000020002201F080531BB10D4B083B1A68D5
:102C100002E00A4B083B1A6802EA01030BB10120EB
:102C200000E00020704700F0805119B10449091FED
:102C3000086002E001490839486070470800024016
:102C400008040240002044490860091D0860091D6D
:102C50000860091D086041483F4914310860704709
:102C600000213D498279002A3AD00A461268036859
:102C70009A430B461A600A1D126803689A430B1D9B
:102C80001A60027911440A6803681A430A60324ADA
:102C90000832126803689A432F4B08331A601A1DD2
:102CA000126803689A432C4B0C331A604279102A3D
:102CB0000ED11A1F126803681A43274B08331A6093
:102CC0001A1D126803681A43234B0C331A600DE077
:102CD0002149427911440A6803681A430A6005E0F1
:102CE000027911440A6803689A430A607047002118
:102CF000016001710C2141710021817170471649F9
:102D0000103109680143144A1032116070470146BE
:102D10000020114A143212680A400AB1012000E072
:102D2000002070470C4914310860704701460020AC
:102D30000022094B1B6803EA0102074B14331B688E
:102D40000B4013B10AB1012000E000207047024996
:102D5000143108607047000000040140FFFF0F00BD
:102D600001460020FE4A106800F038000843106059
:102D70007047FB49096821F00801F94A11601146C2
:102D80000968014311607047F549096821F0100195
:102D9000F34A116011460968014311607047F14818
:102DA000EF494860F04848607047EE48EC49486099
:102DB000ED4848607047EA48006940F08000E84903
:102DC00008617047E648006940F08000E449086106
:102DD00070470420E249C96801F0010109B10120EE
:102DE0000EE0DF49C96801F0040109B1022007E0E3
:102DF000DB49C96801F0100109B1032000E004209B
:102E0000704700B502460423FFF7E3FF034603E0E3
:102E1000FFF7DFFF0346521E012B01D1002AF7D135
:102E200002B90523184600BD30B5044604254FF409
:102E30003020FFF7E6FF0546042D17D1C84800698A
:102E400040F00200C649086108464461006940F04C
:102E5000400008614FF43020FFF7D3FF0546C0481B
:102E6000006941F6FD710840BD490861284630BD42
:102E700010B504244FF43020FFF7C3FF0446042CA0
:102E800016D1B748006940F00400B549086108460A
:102E9000006940F0400008614FF43020FFF7B1FFB7
:102EA0000446AF48006941F6FB710840AC4908612F
:102EB000204610BD00B502460423FFF78AFF0346F3
:102EC00003E0FFF786FF0346521E012B01D1002AC3
:102ED000F7D102B90523184600BD10B504244FF4FC
:102EE0003020FFF7E7FF0446042C16D19C48006908
:102EF00040F004009A4908610846006940F040002B
:102F000008614FF43020FFF7D5FF0446944800696C
:102F100041F6FB71084092490861204610BD00202F
:102F20008F49C96901F0020109B1012000E00020C8
:102F3000704730B5A5250424FFF7F1FF00B1002547
:102F40004FF43020FFF75DFF0446042C3AD185484A
:102F500083498860844888600846006940F0200002
:102F600008610846006940F0400008614FF43020D5
:102F7000FFF747FF0446042C1BD17948006941F64E
:102F8000DF710840764908610846006940F010008A
:102F9000086176480580E002FFF733FF0446052C00
:102FA00010D06F48006941F6EF7108406C49086124
:102FB00008E0052C06D06A48006941F6EF71084028
:102FC00067490861204630BD78B506460C460425A1
:102FD00000200090E802FFF714FF0546042D24D1DD
:102FE0005F48006940F001005D4908613480E802F3
:102FF000FFF707FF0546042D10D1B01C0090200CF0
:1030000000990880E802FFF7FCFE05465448006975
:1030100041F6FE7108405249086106E050480069D7
:1030200041F6FE7108404E490861284678BD70B5EA
:1030300004460D460426F002FFF7E3FE0646042E82
:1030400011D14748006940F00100454908612580D9
:10305000F002FFF7D6FE06464148006941F6FE71D0
:1030600008403F490861304670BD70B505460E46C0
:103070000424E002FFF7C5FE0446042C17D13948AA
:1030800037498860384888600846006940F0100079
:1030900008612E80E002FFF7B4FE0446052C06D03E
:1030A0002F48006941F6EF7108402D49086120461C
:1030B00070BD2DE9F04304464FF6FF763746B04623
:1030C000B1460425E443E6B2C4F30727C4F3074836
:1030D0004FEA1469E802FFF794FE0546042D49D132
:1030E00020481F498860204888600846006940F0F1
:1030F00010000861FF2E06D01C4808300680E80248
:10310000FFF77FFE0546042D08D1FF2F06D0174894
:103110000A300780E802FFF774FE0546042D0AD145
:10312000B8F1FF0F07D011480C30A0F80080E8027A
:10313000FFF767FE0546042D0AD1B9F1FF0F07D04E
:103140000A480E30A0F80090E802FFF75AFE054644
:10315000052D0FD00248006941F6EF71084007E0E5
:103160000020024023016745AB89EFCD00F8FF1F27
:10317000664908612846BDE8F08330B50546042459
:103180004FF43020FFF73DFE0446042C41D1604847
:103190005E4988605F4888600846006940F020000A
:1031A00008610846006940F0400008614FF4302093
:1031B000FFF727FE0446042C22D15448006941F64B
:1031C000DF710840514908610846006940F010006D
:1031D00008611DB100205049088002E0A5204E4939
:1031E00008804FF43020FFF70CFE0446052C10D069
:1031F0004648006941F6EF7108404449086108E01B
:10320000052C06D04148006941F6DF7108403F496E
:103210000861204630BDF0B505460E461746042429
:103220003B483A4988603B488860E002FFF7E9FD87
:103230000446042C19D13548006940F01000334988
:10324000086147F0F800304328433349891C08805F
:10325000E002FFF7D6FD0446052C06D02B48006996
:1032600041F6EF710840294908612046F0BD274822
:10327000C069800870472548006A704700202349CC
:10328000096801F0200109B1012000E00020704729
:1032900029B11E4A126902431C4B1A6104E01B4A01
:1032A00012698243194B1A617047014600200129B7
:1032B00008D1164AD26902F001020AB1012008E0E1
:1032C000002006E0114AD2680A400AB1012000E05D
:1032D000002070470D49C860704704200B49C96839
:1032E00001F0010109B101200EE00849C96801F0AF
:1032F000040109B1022007E00449C96801F0100186
:1033000009B1032000E004207047000000200240C3
:1033100023016745AB89EFCD00F8FF1F10B50446C8
:10332000CC48844208D10121042000F02DFB00216B
:10333000042000F029FB46E0C748844208D101215F
:10334000082000F021FB0021082000F01DFB3AE0DE
:10335000C248844208D10121102000F015FB002151
:10336000102000F011FB2EE0BD48844208D101215D
:10337000202000F009FB0021202000F005FB22E0C6
:10338000B848844208D10121402000F0FDFA002114
:10339000402000F0F9FA16E0B348844208D1012138
:1033A000802000F0F1FA0021802000F0EDFA0AE020
:1033B000AE48844207D10121801500F0E5FA0021D2
:1033C000A01500F0E1FA10BD10B50121084600F08B
:1033D000DBFA0021012000F0D7FA10BD2DE9F04101
:1033E000024600250026002000230024002791F833
:1033F00003C00CF00F0591F803C00CF0100CBCF1E9
:10340000000F03D091F802C04CEA050591F800C006
:10341000BCF1000F31D0146800202BE04FF0010CFC
:103420000CFA00F3B1F800C00CEA03069E4220D16A
:1034300083004FF00F0C0CFA03F7BC4305FA03FCB2
:103440004CEA040491F803C0BCF1280F06D14FF0F8
:10345000010C0CFA00FCC2F814C00AE091F803C099
:10346000BCF1480F05D14FF0010C0CFA00FCC2F87A
:1034700010C0401C0828D1D31460B1F800C0BCF1C2
:10348000FF0F34DD546800202EE000F1080C4FF0EF
:10349000010808FA0CF3B1F800C00CEA03069E42DA
:1034A00021D183004FF00F0C0CFA03F7BC4305FA4F
:1034B00003FC4CEA040491F803C0BCF1280F05D1C9
:1034C00000F1080C08FA0CF8C2F8148091F803C057
:1034D000BCF1480F07D100F1080C4FF0010808FAC1
:1034E0000CF8C2F81080401C0828CED35460BDE808
:1034F000F0814FF6FF710180022181700421C170BB
:1035000070470246002093680B400BB1012000E099
:10351000002070470146886880B27047024600204C
:10352000D3680B400BB1012000E00020704701463A
:10353000C86880B2704701617047416170470AB145
:10354000016100E041617047C16070474FF4803213
:103550000A438261816182618269826970470246A1
:103560000020434B18684FF68073184040EA021061
:1035700008433F4B186070473E49C8617047F0B53B
:103580000A46002300240021002500F00046B6F181
:10359000004F02D1364EF16901E0354E7168C0F33B
:1035A000034583B200F44016B6F5401F08D121F060
:1035B00070612F4E766826F070662D4F7E6012E0A7
:1035C00000F48016B6F5801F06D1032606FA05F42E
:1035D000A14341F0706106E0460D360103FA06F69C
:1035E000B14341F0706122B1460D360103FA06F68F
:1035F000314300F00046B6F1004F02D11C4EF1619C
:1036000001E01B4E7160F0BD30B500228B071C0F2E
:103610000F2303FA04F2164B08338C1053F82430AE
:103620009343134C08348D1044F8253023468C10F6
:1036300053F824308C07240F00FA04F423430C4C75
:1036400008348D1044F8253030BD0A49DC3108605B
:103650007047000000080140000C014000100140CC
:103660000014014000180140001C014000200140EE
:103670000000014000002042DF48006840F00100E7
:10368000DD49086008464068DC490840DA4948607E
:1036900008460068DA490840D749086008460068CB
:1036A00020F4802008600846406820F4FE0048604E
:1036B0004FF41F0088607047CF49096821F48031BA
:1036C000CD4A11601146096821F480211160B0F5DE
:1036D000803F03D0B0F5802F0ED106E0C6490968BF
:1036E00041F48031C44A116007E0C349096841F4DC
:1036F000A021C14A116000E000BF00BF704710B5B3
:1037000001460022002300204A11012A02D1BA4CAE
:10371000236806E0022A02D1B74C236A01E0B64CC6
:10372000636A01F01F02012494401C400CB1012087
:1037300000E0002010BD38B50020009000240025D6
:1037400000BF3120FFF7DBFF05460098401C0090CA
:103750000098B0F5A06F01D0002DF2D03120FFF716
:10376000CEFF08B1012400E00024204638BD014608
:103770000020A14A106820F0F80040EAC100106063
:103780007047A04908607047024600209A4B58686D
:1037900020F47C1042EA01031843974B58607047AD
:1037A00098490866704701460020934A506820F007
:1037B00003000843506070478F48406800F00C00D9
:1037C0007047014600208C4A506820F0F000084302
:1037D0005060704701460020874A506820F4E0603E
:1037E00008435060704701460020834A506820F427
:1037F000605040EAC1005060704729B17E4A527A59
:1038000002437D4B5A7204E07B4A527A82437A4BE0
:103810005A7270477B49D8310860704701460020D2
:10382000754A506820F440400843506070470021BA
:10383000714A20321170704A82F82010012802D09B
:1038400004280AD104E001216B4A2032117005E0FE
:103850000521694A2032117000E000BF00BF7047A7
:103860006949086070476449096A0143624A116204
:103870007047654944390860704730B5002100221F
:10388000002400235C4D6D6805F00C0121B1042972
:1038900005D0082923D105E05C4D056022E05B4D91
:1038A00005601FE0544D6D6805F47012524D6D684F
:1038B00005F48034022505EB92421CB9544D554362
:1038C00005600BE04C4D6D6805F400351DB1504DA1
:1038D0005543056002E04D4D5543056002E04B4DF8
:1038E000056000BF00BF444D6D6805F0F001090997
:1038F000484D6B5C0568DD4045603F4D6D6805F4E3
:10390000E061090A434D6B5C4568DD4085603A4DD6
:103910006D6805F46051C90A3E4D6B5C4568DD4039
:10392000C560354D6D6805F44041890B3A4D6B5CBF
:10393000C568B5FBF3F5056130BD29B12E4A526962
:1039400002432D4B5A6104E02B4A526982432A4BB1
:103950005A61704729B1284A92690243264B9A61FD
:1039600004E0254A92698243234B9A61704729B14A
:10397000214AD2690243204BDA6104E01E4AD2692F
:1039800082431D4BDA61704729B11B4AD26802435A
:10399000194BDA6004E0184AD2688243164BDA60A9
:1039A000704729B1144A12690243134B1A6104E0AB
:1039B000114A12698243104B1A617047124940390B
:1039C000086070470F49C86470470B49C871704759
:1039D0000948406A40F080700749486270470146D4
:1039E0000020054A92680A400AB1012000E0002048
:1039F0007047014988727047001002400000FFF8CC
:103A0000FFFFF6FE000042428004424200127A00AC
:103A100000093D00E8000020F800002010B5044631
:103A2000FE48844208D10121C014FFF7ADFF0021F8
:103A3000E014FFF7A9FFC4E0B4F1804F08D10121E1
:103A40000846FFF7AEFF00210120FFF7AAFFB8E00C
:103A5000F348844208D101210220FFF7A2FF002190
:103A60000220FFF79EFFACE0EE48844208D101211E
:103A70000420FFF796FF00210420FFF792FFA0E04B
:103A8000E948844208D101210820FFF78AFF00217C
:103A90000820FFF786FF94E0E448844208D1012122
:103AA0001020FFF77EFF00211020FFF77AFF88E04B
:103AB000DF48844208D101212020FFF772FF002156
:103AC0002020FFF76EFF7CE0DA48844208D1012114
:103AD0004014FFF759FF00216014FFF755FF70E015
:103AE000D548844209D10121C804FFF74DFF0021C8
:103AF0004FF40020FFF748FF63E0D048844209D12B
:103B000001210805FFF740FF00214FF48010FFF767
:103B10003BFF56E0CA48844209D101214805FFF71E
:103B200033FF00214FF40010FFF72EFF49E0C54896
:103B3000844208D101214020FFF733FF00214020BB
:103B4000FFF72FFF3DE0C048844208D101218020CB
:103B5000FFF727FF00218020FFF723FF31E0BB485C
:103B6000844208D101218015FFF71BFF0021A01519
:103B7000FFF717FF25E0B648844209D10121080468
:103B8000FFF702FF00214FF48030FFF7FDFE18E041
:103B9000B048844209D101214804FFF7F5FE002115
:103BA0004FF40030FFF7F0FE0BE0AB48844208D141
:103BB00001218804FFF7E8FE00214FF48020FFF781
:103BC000E3FE10BD00220288944B98420ED0994B20
:103BD00098420BD0B0F1804F08D0914B984205D05D
:103BE000904B984202D0904B984204D14FF68F737D
:103BF0001A404B881A438D4B984207D08C4B984201
:103C000004D04FF6FF431A40CB881A4302808B88BA
:103C100083850B880385814B98420BD0854B984256
:103C200008D08B4B984205D08A4B984202D08A4BE1
:103C3000984201D10B7A038601238382704770B5C5
:103C4000002400220023058C4FF6FE7635400584C3
:103C5000028C8388048B4FF68F752C40B51E2C4048
:103C60000D882C43751E2A400D892A434D882A430E
:103C70006A4DA8420BD06F4DA84208D0744DA8429F
:103C800005D0744DA84202D0734DA84213D14FF60F
:103C9000F7752A404D892A434FF6FB752A408D88D7
:103CA0002A434FF6FF652B404FF6FF552B408D8979
:103CB0002B43CD892B4383800483CD888586028462
:103CC00070BD70B5002400220023058C4FF6EF76FE
:103CD00035400584028C8388048B48F6FF752C40A0
:103CE0004FF6FF452C400D884FF6FF7606EA052576
:103CF0002C434FF6DF752A400D8906EA05152A4345
:103D00004D8806EA05152A43444DA84202D0494D84
:103D1000A8421DD14FF67F752A404D894FF6FF7698
:103D200006EA05152A434FF6BF752A408D8806EA34
:103D300005152A434FF6FF352B404FF2FF752B40F8
:103D40008D8906EA85052B43CD8906EA85052B4337
:103D500083800483CD880587028470BD70B50024FC
:103D600000220023058C4FF6FF6635400584028C47
:103D70008388848B4FF68F752C404FF6FC752C4052
:103D80000D882C434FF6FF552A400D894FF6FF76DC
:103D900006EA05252A434D8806EA05252A431F4DD4
:103DA000A84202D0234DA8421DD14FF2FF752A40F0
:103DB0004D894FF6FF7606EA05252A434FF6FF3573
:103DC0002A408D8806EA05252A434EF6FF752B40CA
:103DD0004DF6FF752B408D8906EA05152B43CD89DD
:103DE00006EA05152B4383808483CD88858702846A
:103DF00070BD70B5002200230024058C4EF6FF76BE
:103E000035400584038C8488828B48F6FF752A40F0
:103E10004FF6FF452A400D8820E00000002C0140AD
:103E20000004004000080040000C0040001000406A
:103E30000014004000340140004C0140005001409B
:103E40000054014000180040001C004000200040C9
:103E50000040014000440140004801404FF6FF7619
:103E600006EA05252A434DF6FF752B400D8906EA23
:103E700005352B434D8806EA05352B43FA4DA842FC
:103E800002D0FA4DA84208D14BF6FF752C408D891F
:103E90004FF6FF7606EA85152C4384808283CD8811
:103EA000A0F84050038470BD828B4FF2FF331A405C
:103EB0008283828B4FF6FF7303EA01231A438283C6
:103EC0007047F0B50C461546002200210026078CED
:103ED0004EF6FF7C07EA0C070784828B018C4FF6B5
:103EE000FF7707EA043640F6FF473A404FF6FF7780
:103EF00007EA05273A434FF6FF7707EA03373A43C5
:103F0000D94FB8420ED0D94FB8420BD0B0F1804F44
:103F100008D0D74FB84205D0D64FB84202D0D64FBE
:103F2000B84206D14DF6FF77394046F48057394301
:103F300005E047F6FF57394044F480573943828300
:103F40000184F0BD828B4FF6F3731A408283828B1B
:103F50000A4382837047F0B50C46154600220021C3
:103F60000026078C4FF6FF6C07EA0C070784828B4C
:103F7000018C4FF6FF7707EA04264FF60C773A409C
:103F80004FF6FF7707EA03172F433A43B64FB8427D
:103F90000ED0B64FB8420BD0B0F1804F08D0B44F1E
:103FA000B84205D0B34FB84202D0B34FB84206D1A1
:103FB0004FF6FF57394046F48077394305E04FF21A
:103FC000FF57394044F48077394382830184F0BD40
:103FD000028B4FF2FF331A400283028B4FF6FF73BE
:103FE00003EA01231A4302837047F0B50C461546D5
:103FF000002200210026078C4FF6EF7C07EA0C0711
:104000000784028B018C4FF6FF7707EA041640F60F
:10401000FF473A404FF6FF7707EA03373A434FF638
:10402000FF7707EA05273A438F4FB8420ED08F4FEC
:10403000B8420BD0B0F1804F08D08D4FB84205D0B8
:104040008C4FB84202D08C4FB84206D14FF6DF7782
:10405000394046F01007394305E04FF65F773940A5
:1040600044F01007394302830184F0BD028B4FF600
:10407000F3731A400283028B0A4302837047F0B540
:104080000C46154600220021068C4FF6FE773E4076
:104090000684028B018C4FF60C7632407E1C06EAB9
:1040A00003162E433243704EB0420ED06F4EB042D4
:1040B0000BD0B0F1804F08D06D4EB04205D06D4EA0
:1040C000B04202D06C4EB04206D14FF6FD76314080
:1040D00044F00106314305E04FF6F576314044F0F7
:1040E0000106314302830184F0BD70B505460C46DC
:1040F0005D4885420ED05D4885420BD0B5F1804FBA
:1041000008D05B48854205D05A48854202D05A48BB
:10411000854200D100E000BF208850B92389A288E1
:1041200061882846FFF7ABFFE1882846FFF79EFF2E
:1041300025E0208804280AD12389A288618828469E
:10414000FFF753FFE1882846FFF742FF17E020887A
:1041500008280AD12389A28861882846FFF7FBFE38
:10416000E1882846FFF7EEFE09E02389A2886188EE
:104170002846FFF7A6FEE1882846FFF795FE70BDAA
:104180002DE9F04105460C4600260127608808B954
:10419000022600E00026A088012801D1022700E0C5
:1041A00001272088A0B92389A28861882846FFF7C3
:1041B00066FFE1882846FFF759FF23893A463146D2
:1041C0002846FFF712FFE1882846FFF701FF13E0BA
:1041D0002389A28861882846FFF707FFE1882846DF
:1041E000FFF7F6FE23893A4631462846FFF747FF98
:1041F000E1882846FFF73AFFBDE8F0810A884B883E
:104200001A438B881A43CB881A430B891A434B896C
:104210001A438B891A43A0F8442070474FF6FF7168
:10422000818000210180C18041800172704700219E
:10423000018041808180C180018141818181C18172
:104240007047002101804180012181800021C180CF
:10425000018170470021018041808180C1800181FE
:104260004181818170470000002C014000340140F1
:104270000004004000080040000C004021B102880A
:1042800042F00102028004E002884FF6FE731A40F9
:104290000280704731B1B0F8442042F40042A0F8E7
:1042A000442005E0B0F84420C2F30E02A0F84420F8
:1042B00070471AB183890B43838102E083898B4362
:1042C000838170478182704741EA0203A0F8483039
:1042D00070471AB183890B43838102E083898B4342
:1042E0008381704701894FF6F87211400181704750
:1042F0000A46002101894FF68F731940114301814D
:10430000704730B504460D4629462046FFF7F0FFBA
:10431000208940F00700208130BD2DE9F04104469E
:104320000D4616461F46602D06D13B4601223146FA
:104330002046FFF75AFE05E03B4601223146204663
:10434000FFF79DFE29462046FFF7D2FF208940F067
:1043500007002081BDE8F08130B50C4600210189BD
:10436000C9B24FF6FF7505EA0325154325432943D6
:10437000018130BD2DE9F04105460E4617469846AD
:10438000002443463A4631462846FFF7E5FF2C898C
:104390004FF6F870044044F007044FF68F70044065
:1043A00044F070042C81BDE8F081F0B504460D4660
:1043B00016461F463B46324629462046FFF7CCFFAD
:1043C000208940F480402081F0BD018582827047C1
:1043D0000A46002101884FF68F731940114301806E
:1043E0007047F0B50C4615461E46002100220023FA
:1043F0000189028B038C4FF6F877394021434FF641
:10440000FC473A4040F201173A434FF6DD773B4014
:104410004FF6FF7707EA06172F433B4301810283DC
:104420000384F0BD0A460021018B4FF68F731940BB
:104430001143018370470A460021018B48F6FF7340
:1044400019404FF6FF7303EA0223194301837047B3
:104450000A460021818B4FF68F73194011438183E7
:1044600070470A460021818B48F6FF7319404FF6CA
:10447000FF7303EA022319438183704721B1028845
:1044800042F08002028004E002884FF67F731A40F7
:104490000280704721B1828842F00402828004E0E9
:1044A00082884FF6FB731A408280704721B1828860
:1044B00042F00802828004E082884FF6F7731A40C7
:1044C0008280704721B1828842F00102828004E03C
:1044D00082884FF6FE731A40828070470A46002198
:1044E000018B4FF6F77319401143018370470A4659
:1044F0000021018B4FF2FF7319404FF6FF7303EA5F
:1045000002231943018370470A460021818B4FF62D
:10451000F77319401143818370470A460021818B4C
:104520004FF2FF7319404FF6FF7303EA022319435A
:10453000818370470A460021018B4FF6FB731940B7
:104540001143018370470A460021018B4FF6FF3368
:1045500019404FF6FF7303EA0223194301837047A2
:104560000A460021818B4FF6FB731940114381836A
:1045700070470A460021818B4FF6FF3319404FF6F2
:10458000FF7303EA02231943818370470A4600211F
:10459000018B4FF67F7319401143018370470A4620
:1045A0000021018BC1F30E014FF6FF7303EA0223D2
:1045B0001943018370470A460021818B4FF67F73B0
:1045C00019401143818370470A460021818BC1F352
:1045D0000E014FF6FF7303EA0223194381837047EC
:1045E0000A460021018C4FF6FD73194011430184E6
:1045F00070470A460021018C4FF6F77319401143AA
:10460000018470470A460021018C4FF6DF73194080
:104610004FF6FF7303EA02131943018470470A46F9
:104620000021018C4FF67F7319404FF6FF7303EAA8
:1046300002131943018470470A460021018C4FF68A
:10464000FF5319404FF6FF7303EA02231943018415
:1046500070470A460021018C4FF2FF7319404FF654
:10466000FF7303EA02231943018470470A460021BD
:10467000018C4DF6FF7319404FF6FF7303EA0233C6
:1046800019430184704730B5002301248C40A3B244
:10469000048C9C430484048C02FA01F5ADB22C43D3
:1046A000048430BD30B5002304248C40A3B2048CB4
:1046B0009C430484048C02FA01F5ADB22C430484BB
:1046C00030BD70B50346002000241846183001257F
:1046D0008D40ACB21D8CA5431D8409B1082909D1B8
:1046E00000EB6100056825F070050560056815435D
:1046F00005600EE00D1FC5F34E052844056825F43E
:10470000E045056005684FF6FF7606EA0226354368
:10471000056070BD21B1028842F00202028004E00F
:1047200002884FF6FD731A400280704721B102885B
:1047300042F00402028004E002884FF6FB731A4044
:104740000280704721B1828842F08002828004E0BA
:1047500082884FF67F731A408280704702884FF636
:10476000F7731A40028002880A43028070478288E9
:104770004FF68F731A40828082880A438280704786
:1047800002894FF6F8731A40028102890A430281B6
:10479000704702894FF67F731A40028102890A43EB
:1047A0000281704781847047818570478186704798
:1047B0000187704781877047A0F8401070470288D2
:1047C0004FF6FF431A40028002880A430280704776
:1047D0000146888E70470146088F70470146888FD2
:1047E00070470146B1F8400070470146888C704719
:1047F0000146088D704702460020138A0B400BB11A
:10480000012000E000207047CA430282704730B5A3
:104810000246002000230024158A05EA0103958939
:1048200005EA010413B10CB1012000E0002030BD05
:10483000CA4302827047000010B50446FB48844218
:1048400009D101218803FFF79FF800214FF4804030
:10485000FFF79AF832E0F648844209D10121480472
:10486000FFF79FF800214FF40030FFF79AF825E09A
:10487000F048844209D101218804FFF792F8002111
:104880004FF48020FFF78DF818E0EB48844209D1FF
:104890000121C804FFF785F800214FF40020FFF73D
:1048A00080F80BE0E548844208D101210805FFF7B4
:1048B00078F800214FF48010FFF773F810BD2DE950
:1048C000F04786B005460E460024A24600BFA1462A
:1048D0000027B08900B100BF2F462C8A4CF6FF702C
:1048E0000440F08804432C82AC894EF6F310044057
:1048F000B08831890843718908430443AC81AC8A8C
:104900004FF6FF400440B0890443AC8201A8FEF793
:10491000B4FFC648874202D1DDF810A001E0DDF8FF
:104920000CA0A88900F4004040B10AEBCA0000EBDB
:104930000A1031684900B0FBF1F807E00AEBCA0041
:1049400000EB0A1031688900B0FBF1F86420B8FB75
:10495000F0F004012009642101FB1089A88900F40A
:10496000004040B1322000EBC900B0FBF1F000F094
:104970000700044308E0322000EB09106421B0FB7B
:10498000F1F000F00F0004432C8106B0BDE8F08781
:104990004FF41651016000218180C18001810C21FA
:1049A000418100218181704710B502460020108AA4
:1049B0004FF2FF0318400B884C8823438C88234315
:1049C000CC8823431843108210BD00210180418010
:1049D0008180C180704721B1828942F40052828176
:1049E00004E082894DF6FF731A4082817047F0B56A
:1049F0000346002400260025002040F66A17B9422D
:104A000000D100BF1846C1F3421401F01F06012770
:104A100007FA06F5012C01D10C3004E0022C01D17B
:104A2000103000E014301AB107682F43076002E02D
:104A30000768AF430760F0BD1AB1838A0B438382D6
:104A400002E0838A8B4383827047028A4FF6F073B9
:104A50001A400282028A0A430282704782894FF218
:104A6000FF731A40828182890A438281704721B193
:104A7000828942F00202828104E082894FF6FD734E
:104A80001A4082817047028A4FF6DF731A40028211
:104A9000028A0A430282704721B1028A42F48042AC
:104AA000028204E0028A4BF6FF731A4002827047CA
:104AB000C1F308028280704701468888C0F308006D
:104AC0007047818941F0010181817047028BD2B228
:104AD0000283028B42EA012202837047028B02F4B6
:104AE0007F420283028B0A430283704721B1828A8C
:104AF00042F02002828204E0828A4FF6DF731A407D
:104B00008282704721B1828A42F01002828204E0E0
:104B1000828A4FF6EF731A408282704721B1828AEF
:104B200042F00802828204E0828A4FF6F7731A404C
:104B30008282704721B1828942F40042828103E07F
:104B40008289C2F30E028281704721B1828A42F4C7
:104B50000062828204E0828A4FF2FF731A408282EE
:104B60007047828A4FF6FB731A408282828A0A4318
:104B70008282704721B1828A42F00202828204E07E
:104B8000828A4FF6FD731A408282704702460020E7
:104B9000B1F5007F00D100BF13880B400BB101209D
:104BA00000E00020704701F40072B2F5007F00D1F0
:104BB00000BFCA430280704770B50246002400233C
:104BC0000025002040F66A16B14200D100BFC1F3B3
:104BD000421501F01F03012606FA03F3012D02D14D
:104BE0009689334006E0022D02D1168A334001E057
:104BF000968A33400C12012606FA04F416883440D3
:104C000013B10CB1012000E0002070BD10B50022EE
:104C1000002340F66A14A14200D100BF0A12012409
:104C20009440A3B2DC43048010BD00000038014072
:104C30000044004000480040004C0040005000404C
:104C400010B50121C802FEF7ACFE00214FF4006050
:104C5000FEF7A7FE10BD0021194A126822F4C071A8
:104C60000143174A1160704708B5002100911449AB
:104C7000096821F07F01009100F07F01009A114343
:104C800000910F4A0099116008BD01200D4908608C
:104C9000704700F07F010A4A121F1160704740F010
:104CA0008001074A121F116070470548001D006807
:104CB000C0B2704700200249091D0860704700001B
:104CC000042C0040A4800542014608680078502862
:104CD00003D10868B0F80100704708684078FBE726
:104CE0002DE9F04780460F469146444677E03E78EE
:104CF0007F1CA069050C05F0800038B1A06940F068
:104D00001000A06100F086F9BDE8F087A08B70B9B3
:104D1000102E01D0502E03D10020A077012550E0A5
:104D2000A06940F01000A06100F074F9ECE7012DDB
:104D300006D0022D05D0032D0DD0042D3DD11DE050
:104D400000BF20680078502803D1012D01D16D1CCF
:104D500036E0032534E02046FFF7B6FFA18B084478
:104D6000A18A884208DDA06940F02000A0610020EF
:104D7000A08300F04FF9C7E76D1C00BF2046FFF786
:104D8000A3FF21680978502901D1032100E0022105
:104D90000844A18B88420FD1A07FB04203D0A06904
:104DA00040F04000A061A06940F08000A0610020B8
:104DB000A08300F02FF9A7E702E00020A083A3E77B
:104DC00000BFA07FF1B24840A077A18B481CA08310
:104DD00020684654A06965F31F40A06100BFB9F187
:104DE0000000A9F1010982D100BF8DE710B504468A
:104DF000206838B1A08A28B1A06818B1E06808B16D
:104E0000206908B9002010BD0020A061A083A07710
:104E10007B492046A26890470120F4E7F8B5064692
:104E20000D46144650208DF80000042020809DF887
:104E300000006840A0702088401E0DF800502288B5
:104E4000002369463046F768B847F8BD2DE9F041C0
:104E500006460C4617461D4620884119F08A401E1A
:104E6000814204DDF08A401E2188401A85B22388E1
:104E70002A4639463046D6F80CC0E04720882844F8
:104E80002080002005E0A1783A5C5140A170411CCF
:104E900088B2A842F7DB2846BDE8F081F8B50546A0
:104EA0000C462088C01E80B2009001230222694671
:104EB0002846EE68B047BDF80000C0B2BDF800104B
:104EC00080EA2120A1784840A07023880122A11CFB
:104ED0002846EE68B0472088411C28462A6990473A
:104EE0002088401CF8BDF8B504460D4616461F46FE
:104EF0006A4629462046FFF791FF3B4632466946FF
:104F00002046FFF7A3FF69462046FFF7C7FFF8BD1D
:104F100013B504460020A061022301AA0321204604
:104F2000FFF7E1FF1CBD70B506460C461546002094
:104F3000B0612B46224602213046FFF7D4FF70BDF8
:104F400070B505460C460020A8612246022128467D
:104F5000FFF764FF70BD014608680078502802D151
:104F60000868C078704708688078FBE7F8B50446A1
:104F700000F057F8A06900F0700028B1A06981B274
:104F80002046FFF7C5FF2DE0A06900F0800048B380
:104F90002046FFF7E0FF06460EB1012E1FD1A07F8D
:104FA00000900020A0612046FFF78EFE216809785E
:104FB000502901D1032100E00221451800232A468F
:104FC0002046E7682168B8472B46012269462046FB
:104FD000E768B847691C20462269904701E0012034
:104FE000F8BD00BF0020FBE70146086800785028A4
:104FF00002D10868001D70470868C01CFBE700006C
:10500000E14C000800BFFEE754480068401C5349CB
:105010000860704701205249087070475048007876
:10502000704700204E49087070474E49086070472D
:1050300010B572B64B480068804710BD47480068FD
:10504000704770B500BF00BFEFF31081084672B61D
:1050500000BF0246414803684FF0E020846942489F
:10506000006800F0806018B15B1C4FF0E02084699C
:1050700000BF00BF82F3108800BF00BF3B48001B89
:105080004FF47A7148433949491CB0FBF1F04FF4B1
:105090007A75A3FB0565801945F1000170BD00B567
:1050A0000146FFF7CBFF421800BFFFF7C7FF904252
:1050B000FBD300BD00B50246FFF7C0FF831800BF59
:1050C000FFF7BCFF984203D2254800780028F7D0AC
:1050D000FFF7A7FF00BD70B505460C46102C01D1A7
:1050E000072000E005200346012221462846FDF75F
:1050F00016FB01212846FDF7A6FA70BD01466FF0A8
:1051000002000860C86C80B2704700B5024600BF5C
:1051100000BF106800F002000028F9D01046FFF729
:10512000EDFF00BD10B510211148FFF7D4FF104866
:10513000FFF7EBFF044646F2761004FB00F2D017AF
:1051400002EB105043F2DC73A3EB2031C81701EBE4
:1051500090708010FA3080B210BD00000401002071
:10516000FC0000200001002004ED00E03F190100D8
:105170000024014001B500BF0098411E00910028A5
:10518000FAD108BD2DE9F041FFF75BFF06460F4657
:105190001348FFF7EFFFFFF754FF841B61EB070590
:1051A000002184EA01006940084301D1012400255F
:1051B00022462B460A48002101F0AAF80949086056
:1051C0000846006808B901200860BDE8F08101B513
:1051D000044A0099126801FB02F0FFF7CBFF08BDFB
:1051E00020A10700080100200146FC48814201D1AE
:1051F00001207047FA48814201D10220F9E7F948BD
:10520000814201D10320F4E74FF0FF30F1E701467E
:10521000012904D0022904D0032906D103E000208B
:1052200070470120FCE70220FAE74FF0FF30F7E774
:105230000146012904D0022904D0032908D104E041
:10524000E9487047E8483C30FBE7E7482838F8E78A
:105250000020F6E70146012904D0022905D00329E0
:1052600008D105E04FF4005070474FF00070FBE7A5
:105270002020F9E70020F7E770B5054600228021DD
:105280002846FFF7D9FB2846FFF7D6FA2846FFF74E
:10529000ABFF0446601C00B970BD2046FFF7C8FF95
:1052A00006463046FDF7A4FB00BFF5E7F0B58FB02A
:1052B00004460F462046FFF797FF0546681C10B9C5
:1052C00000200FB0F0BD1020029000200390049049
:1052D0008020059000200690079008904FF48050A1
:1052E000099000200A90201D0090012D04D0022D6D
:1052F0000AD0032D1CD111E0BB48FDF779FB6946AC
:10530000B948FDF717FC13E0B7483C30FDF770FBD8
:105310006946B5483C30FDF70DFC09E0B248283835
:10532000FDF766FB6946B0482838FDF703FC00BF6F
:1053300000BF0BA8FFF72CFB0B970BA92046FFF72C
:10534000BEFA00202080012240F225512046FFF7BE
:105350004EFB012280212046FFF76EFB01212046F3
:10536000FFF739FB2846FFF752FF00EB00109F497B
:1053700001EBC0060020C6F88400C6F880000120BA
:105380009FE770B505462846FFF72EFF0446601CD0
:1053900000B970BD2046FFF74BFF064600F0ACF9A0
:1053A00000BF2046FFF756FF0646FDF709FC002820
:1053B000F7D000BFEDE72DE9F047074688461546D0
:1053C0001C46B4F5007F02D30020BDE8F087C4F589
:1053D0000070A84201D2C4F500753846FFF704FFFB
:1053E0000646701C08B90020EFE73046FFF720FFA3
:1053F0008246504600F080F93046FFF708FF7C49AE
:1054000001EB402000EB04092A464146484600F0E3
:10541000E1FF2846D9E72DE9F04107460D46384619
:10542000FFF7E2FE0646701C08B9BDE8F081304681
:10543000FFF7FEFE044600212046FDF7A6FB30469E
:10544000FFF708FF68494439486065603046FFF758
:10545000DEFE674901EB4020E06001212046FDF7B8
:1054600094FB00BFE1E770B506460D4614461CB933
:10547000284600F0DFFF0446002322462946304636
:10548000FFF799FF044621463046FFF7C4FF204648
:1054900070BD13B50446012201A92046FFF7E3FFC2
:1054A0001CBD70B505462846FFF79EFE0646701CDB
:1054B00000B970BD3046FFF7AAFE00EB00104B4963
:1054C00001EBC0040020C4F88400C4F880002880E8
:1054D00000BFEEE770B506463046FFF785FE05468D
:1054E000681C08B9002070BD2846FFF790FE00EB4D
:1054F00000103E4901EBC004D4F880008030D4F89D
:105500008420811AC81701EB5060C011A1EBC010B4
:10551000E9E770B506463046FFF766FE0546681CAB
:1055200010B94FF0FF3070BD2846FFF770FE00EB5A
:1055300000102E4901EBC004D4E92001884202D1B9
:105540004FF0FF30EFE7D4F88400215CD4F88420DA
:10555000501CC21700EB5262D211A0EBC212C4F869
:1055600084200846DFE72DE9F04180460C461546C9
:1055700000260AE04046FFF7CCFF0746781C00B93A
:1055800007E03046761C275400BF281EA5F1010510
:10559000F0D100BF3046BDE8F0812DE9F04107466B
:1055A0000D463846FFF733FE00EB00100F4901EBC4
:1055B000C004D4F88010481CC11700EB5161C91118
:1055C000A0EBC116D4F88400B04204D0D4F8801007
:1055D0006554C4F88060BDE8F081000000380140E7
:1055E000004400400048004044000240F80B002006
:1055F000F805002070B506460C463046FFF7F4FD6E
:105600000546681C00B970BD04B93E4C2846FFF73A
:10561000FEFD3D4941F8204000BFF4E770B5054666
:105620002846FFF7E1FD0446601C08B9002070BD64
:105630002046FFF7ECFD344951F82000F7E710B59C
:1056400040F225513148FFF7B7FA48B12F48001D05
:105650000088C4B22C48214602680120904700BF50
:1056600008212A48FFF792FA012806D14FF6F77170
:10567000264A1180111D088800BF10BD10B540F2E8
:1056800025512348FFF798FA48B12148001D0088AA
:10569000C4B21D48214642680220904700BF08213D
:1056A0001B48FFF773FA012806D14FF6F771184A25
:1056B0001180111D088800BF10BD10B540F22551A2
:1056C0001448FFF779FA48B11248001D0088C4B2A7
:1056D0000D48214682680320904700BF08210D48ED
:1056E000FFF754FA012806D14FF6F771094A1180E5
:1056F000111D088800BF10BD00BF41680029FCD102
:10570000704700009B5500080C0100200038014044
:1057100000440040004800400020314908707047B4
:1057200010B504462E490C70FFF788FC2D4908601F
:1057300000210846FCF76DF9FCF775F910BD002053
:10574000284908602649087001207047704710B545
:10575000FAF7DCFF30B12248007828B90120FFF7C2
:10576000DFFF01E0FFF7D8FF012010BD02461C4813
:10577000007820B1012803D002280FD107E00DE006
:10578000002A01DC002901DD0120704706E0002A23
:1057900001DB002901DA0120F7E700BF00BF00208C
:1057A000F3E710B504460E48007820B1012803D075
:1057B000022811D108E00FE00021204601F050F846
:1057C00001D2002010BD07E00021204601F03EF884
:1057D00001D20020F6E700BF00BF2046F2E700003C
:1057E0001C01002018010020F8B507460C4615469C
:1057F0001E46ADF800408DF802608DF803506946F2
:105800003846FDF7EBFDF8BD10B54FF40040FEF74C
:1058100005F801210846FEF790F8012144F21C60CA
:10582000FEF798F801214FF00210FEF7A0F80121D1
:105830002020FEF78FF801218804FEF798F8012157
:105840000846FEF787F810BD38B54FF4A060FCF7A6
:1058500039FE01208DF8030000BF89484FF0E02198
:10586000486148170021002807DA0A07140E854A04
:1058700000F00F031B1FD45403E00A07130E824AE3
:10588000135400BF00204FF0E02188610720086119
:10589000FFF778FC00BF03208DF8010025208DF86C
:1058A000000001208DF802006846FCF710FE03207E
:1058B0008DF8010026208DF8000002208DF80200EE
:1058C0006846FCF704FE03208DF8010027208DF8C0
:1058D000000003208DF802006846FCF7F8FD172051
:1058E0008DF8000001208DF8010002208DF80200E3
:1058F00001208DF803006846FCF7E9FD38BD10B5BE
:1059000001216248FDF73BFE01216148FDF737FEAA
:1059100001216048FDF733FE032318224FF4806114
:105920005D48FFF761FF0323042251025A48FFF745
:105930005BFF032318224FF400715848FFF754FF10
:105940000323042211025548FFF74EFF03231822B8
:1059500004215248FFF748FF0323042208214F483F
:10596000FFF742FF032318224FF480614A48FFF7F4
:105970003BFF0323042251024748FFF735FF10BDC8
:1059800000B585B0002000908DF804008DF805006A
:105990004FF4602002900020039001208DF8100049
:1059A00069463F48FCF723FE69463E48FCF71FFE68
:1059B00001213B48FCF747FE01213A48FCF743FE32
:1059C0000120FCF7D1FF3648FCF75FFE3548FCF7B5
:1059D0005CFE00BF3248FCF75DFE0028FAD131487A
:1059E000FCF758FE0028F5D12D48FCF75DFE2D4848
:1059F000FCF75AFE00BF2A48FCF75BFE0028FAD1EC
:105A00002848FCF756FE0028F5D105B000BD10B5BA
:105A10000123042240212448FFF7E6FE012304224B
:105A200080212148FFF7E0FE80211F48FDF769FD36
:105A30001E490870084600784006000E0870402194
:105A40001948FDF75EFD19490978084317490870A0
:105A50000846007840F00300087010BD1348007835
:105A6000704710B5FFF7D0FEFFF749FFFFF7ECFED8
:105A7000FFF786FFFDF793F9FFF7C9FF012010BD7F
:105A80003F19010018ED00E000E400E000023000E2
:105A9000000C1A0010001400001001400008014022
:105AA0000024014000280140000C01401D0100209D
:105AB00010B5FAF70EFC04460A2C01DA022010BDDC
:105AC0001E2C01DA0120FAE70020F8E710B54FF4A8
:105AD000E1314E48FFF7EAFBFBF75FFB4FF4E131A2
